{
  "_format": "hh-sol-artifact-1",
  "contractName": "Library",
  "sourceName": "contracts/Library.sol",
  "abi": [
    {
      "inputs": [],
      "name": "destroy",
      "outputs": [],
      "stateMutability": "payable",
      "type": "function"
    },
    {
      "inputs": [],
      "name": "initOwner",
      "outputs": [],
      "stateMutability": "payable",
      "type": "function"
    },
    {
      "inputs": [
        {
          "internalType": "uint256",
          "name": "number",
          "type": "uint256"
        }
      ],
      "name": "isNotPositive",
      "outputs": [
        {
          "internalType": "bool",
          "name": "",
          "type": "bool"
        }
      ],
      "stateMutability": "pure",
      "type": "function"
    }
  ],
  "bytecode": "0x608060405234801561001057600080fd5b50610274806100206000396000f3fe6080604052600436106100345760003560e01c806383197ef014610039578063c2d53eb414610043578063c376d9e31461004d575b600080fd5b61004161008a565b005b61004b6100e4565b005b34801561005957600080fd5b50610074600480360381019061006f91906101db565b610184565b6040516100819190610223565b60405180910390f35b60008054906101000a900473ffffffffffffffffffffffffffffffffffffffff1673ffffffffffffffffffffffffffffffffffffffff163373ffffffffffffffffffffffffffffffffffffffff16146100e257600080fd5b565b600073ffffffffffffffffffffffffffffffffffffffff1660008054906101000a900473ffffffffffffffffffffffffffffffffffffffff1673ffffffffffffffffffffffffffffffffffffffff160361017d57336000806101000a81548173ffffffffffffffffffffffffffffffffffffffff021916908373ffffffffffffffffffffffffffffffffffffffff160217905550610182565b600080fd5b565b6000808211610196576001905061019b565b600090505b919050565b600080fd5b6000819050919050565b6101b8816101a5565b81146101c357600080fd5b50565b6000813590506101d5816101af565b92915050565b6000602082840312156101f1576101f06101a0565b5b60006101ff848285016101c6565b91505092915050565b60008115159050919050565b61021d81610208565b82525050565b60006020820190506102386000830184610214565b9291505056fea264697066735822122086ae8fb9d38754425b79fc20016820f38cf1479a204cc05d5cbdce8425c5618f64736f6c634300080d0033",
  "linkReferences": {},
  "deployedLinkReferences": {}
}