{
  "_format": "hh-sol-artifact-1",
  "contractName": "Weather",
  "sourceName": "contracts/weather.sol",
  "abi": [
    {
      "inputs": [],
      "name": "admin",
      "outputs": [
        {
          "internalType": "address",
          "name": "",
          "type": "address"
        }
      ],
      "stateMutability": "view",
      "type": "function"
    },
    {
      "inputs": [],
      "name": "availableFunds",
      "outputs": [
        {
          "internalType": "uint256",
          "name": "",
          "type": "uint256"
        }
      ],
      "stateMutability": "view",
      "type": "function"
    },
    {
      "inputs": [],
      "name": "destroy",
      "outputs": [],
      "stateMutability": "payable",
      "type": "function"
    },
    {
      "inputs": [],
      "name": "donate",
      "outputs": [],
      "stateMutability": "payable",
      "type": "function"
    },
    {
      "inputs": [
        {
          "internalType": "uint256",
          "name": "",
          "type": "uint256"
        }
      ],
      "name": "donations",
      "outputs": [
        {
          "internalType": "uint256",
          "name": "id",
          "type": "uint256"
        },
        {
          "internalType": "string",
          "name": "name",
          "type": "string"
        },
        {
          "internalType": "uint256",
          "name": "amount",
          "type": "uint256"
        },
        {
          "internalType": "address payable",
          "name": "recipient",
          "type": "address"
        }
      ],
      "stateMutability": "view",
      "type": "function"
    },
    {
      "inputs": [
        {
          "internalType": "uint256",
          "name": "",
          "type": "uint256"
        }
      ],
      "name": "funds",
      "outputs": [
        {
          "internalType": "uint256",
          "name": "",
          "type": "uint256"
        }
      ],
      "stateMutability": "view",
      "type": "function"
    },
    {
      "inputs": [],
      "name": "getFunds",
      "outputs": [
        {
          "internalType": "uint256",
          "name": "",
          "type": "uint256"
        }
      ],
      "stateMutability": "view",
      "type": "function"
    },
    {
      "inputs": [],
      "name": "initOwner",
      "outputs": [],
      "stateMutability": "payable",
      "type": "function"
    },
    {
      "inputs": [
        {
          "internalType": "uint256",
          "name": "number",
          "type": "uint256"
        }
      ],
      "name": "isNotPositive",
      "outputs": [
        {
          "internalType": "bool",
          "name": "",
          "type": "bool"
        }
      ],
      "stateMutability": "pure",
      "type": "function"
    },
    {
      "inputs": [],
      "name": "totalFunds",
      "outputs": [
        {
          "internalType": "uint256",
          "name": "",
          "type": "uint256"
        }
      ],
      "stateMutability": "view",
      "type": "function"
    },
    {
      "inputs": [
        {
          "internalType": "uint256",
          "name": "amount",
          "type": "uint256"
        },
        {
          "internalType": "address payable",
          "name": "to",
          "type": "address"
        }
      ],
      "name": "withdrawEther",
      "outputs": [],
      "stateMutability": "nonpayable",
      "type": "function"
    }
  ],
  "bytecode": "0x608060405234801561001057600080fd5b50610cfb806100206000396000f3fe60806040526004361061009c5760003560e01c8063c2d53eb411610064578063c2d53eb414610169578063c376d9e314610173578063ce56c454146101b0578063ed88c68e146101d9578063f851a440146101e3578063f8626af81461020e5761009c565b806346fcff4c146100a15780634d9b3735146100cc5780637b8e8895146100f757806383197ef014610134578063968ed6001461013e575b600080fd5b3480156100ad57600080fd5b506100b661024e565b6040516100c39190610863565b60405180910390f35b3480156100d857600080fd5b506100e1610254565b6040516100ee9190610863565b60405180910390f35b34801561010357600080fd5b5061011e600480360381019061011991906108af565b61029b565b60405161012b9190610863565b60405180910390f35b61013c6102b3565b005b34801561014a57600080fd5b5061015361030d565b6040516101609190610863565b60405180910390f35b610171610313565b005b34801561017f57600080fd5b5061019a600480360381019061019591906108af565b6103b3565b6040516101a791906108f7565b60405180910390f35b3480156101bc57600080fd5b506101d760048036038101906101d29190610970565b6103cf565b005b6101e1610498565b005b3480156101ef57600080fd5b506101f86104ed565b60405161020591906109d1565b60405180910390f35b34801561021a57600080fd5b50610235600480360381019061023091906108af565b610513565b6040516102459493929190610a94565b60405180910390f35b60065481565b60006102956040518060400160405280600d81526020017f62616c616e636520697320257300000000000000000000000000000000000000815250476105eb565b47905090565b60036020528060005260406000206000915090505481565b60008054906101000a900473ffffffffffffffffffffffffffffffffffffffff1673ffffffffffffffffffffffffffffffffffffffff163373ffffffffffffffffffffffffffffffffffffffff161461030b57600080fd5b565b60055481565b600073ffffffffffffffffffffffffffffffffffffffff1660008054906101000a900473ffffffffffffffffffffffffffffffffffffffff1673ffffffffffffffffffffffffffffffffffffffff16036103ac57336000806101000a81548173ffffffffffffffffffffffffffffffffffffffff021916908373ffffffffffffffffffffffffffffffffffffffff1602179055506103b1565b600080fd5b565b60008082116103c557600190506103ca565b600090505b919050565b600160009054906101000a900473ffffffffffffffffffffffffffffffffffffffff1673ffffffffffffffffffffffffffffffffffffffff163373ffffffffffffffffffffffffffffffffffffffff161461042957600080fd5b61048a6040518060400160405280600e81526020017f7769746864726177696e67202573000000000000000000000000000000000000815250600160009054906101000a900473ffffffffffffffffffffffffffffffffffffffff16610687565b6104948282610723565b5050565b6104ea34600460003373ffffffffffffffffffffffffffffffffffffffff1673ffffffffffffffffffffffffffffffffffffffff1681526020019081526020016000205461080b90919063ffffffff16565b50565b600160009054906101000a900473ffffffffffffffffffffffffffffffffffffffff1681565b600260205280600052604060002060009150905080600001549080600101805461053c90610b0f565b80601f016020809104026020016040519081016040528092919081815260200182805461056890610b0f565b80156105b55780601f1061058a576101008083540402835291602001916105b5565b820191906000526020600020905b81548152906001019060200180831161059857829003601f168201915b5050505050908060020154908060030160009054906101000a900473ffffffffffffffffffffffffffffffffffffffff16905084565b6106838282604051602401610601929190610b40565b6040516020818303038152906040527f9710a9d0000000000000000000000000000000000000000000000000000000007bffffffffffffffffffffffffffffffffffffffffffffffffffffffff19166020820180517bffffffffffffffffffffffffffffffffffffffffffffffffffffffff8381831617835250505050610821565b5050565b61071f828260405160240161069d929190610b70565b6040516020818303038152906040527f319af333000000000000000000000000000000000000000000000000000000007bffffffffffffffffffffffffffffffffffffffffffffffffffffffff19166020820180517bffffffffffffffffffffffffffffffffffffffffffffffffffffffff8381831617835250505050610821565b5050565b600654821115610768576040517f08c379a000000000000000000000000000000000000000000000000000000000815260040161075f90610bec565b60405180910390fd5b6107a76040518060400160405280600f81526020017f5472616e7366657272696e672025730000000000000000000000000000000000815250836105eb565b81600660008282546107b99190610c3b565b925050819055508073ffffffffffffffffffffffffffffffffffffffff166108fc839081150290604051600060405180830381858888f19350505050158015610806573d6000803e3d6000fd5b505050565b600081836108199190610c6f565b905092915050565b60008151905060006a636f6e736f6c652e6c6f679050602083016000808483855afa5050505050565b6000819050919050565b61085d8161084a565b82525050565b60006020820190506108786000830184610854565b92915050565b600080fd5b61088c8161084a565b811461089757600080fd5b50565b6000813590506108a981610883565b92915050565b6000602082840312156108c5576108c461087e565b5b60006108d38482850161089a565b91505092915050565b60008115159050919050565b6108f1816108dc565b82525050565b600060208201905061090c60008301846108e8565b92915050565b600073ffffffffffffffffffffffffffffffffffffffff82169050919050565b600061093d82610912565b9050919050565b61094d81610932565b811461095857600080fd5b50565b60008135905061096a81610944565b92915050565b600080604083850312156109875761098661087e565b5b60006109958582860161089a565b92505060206109a68582860161095b565b9150509250929050565b60006109bb82610912565b9050919050565b6109cb816109b0565b82525050565b60006020820190506109e660008301846109c2565b92915050565b600081519050919050565b600082825260208201905092915050565b60005b83811015610a26578082015181840152602081019050610a0b565b83811115610a35576000848401525b50505050565b6000601f19601f8301169050919050565b6000610a57826109ec565b610a6181856109f7565b9350610a71818560208601610a08565b610a7a81610a3b565b840191505092915050565b610a8e81610932565b82525050565b6000608082019050610aa96000830187610854565b8181036020830152610abb8186610a4c565b9050610aca6040830185610854565b610ad76060830184610a85565b95945050505050565b7f4e487b7100000000000000000000000000000000000000000000000000000000600052602260045260246000fd5b60006002820490506001821680610b2757607f821691505b602082108103610b3a57610b39610ae0565b5b50919050565b60006040820190508181036000830152610b5a8185610a4c565b9050610b696020830184610854565b9392505050565b60006040820190508181036000830152610b8a8185610a4c565b9050610b9960208301846109c2565b9392505050565b7f494e53554646494349454e542046554e44530000000000000000000000000000600082015250565b6000610bd66012836109f7565b9150610be182610ba0565b602082019050919050565b60006020820190508181036000830152610c0581610bc9565b9050919050565b7f4e487b7100000000000000000000000000000000000000000000000000000000600052601160045260246000fd5b6000610c468261084a565b9150610c518361084a565b925082821015610c6457610c63610c0c565b5b828203905092915050565b6000610c7a8261084a565b9150610c858361084a565b9250827fffffffffffffffffffffffffffffffffffffffffffffffffffffffffffffffff03821115610cba57610cb9610c0c565b5b82820190509291505056fea2646970667358221220ad9ea6ffb3ec0db6495a7fd12ffb1659153a4211e33e048f11546f7ca67ec52164736f6c634300080d0033",
  "linkReferences": {},
  "deployedLinkReferences": {}
}